:100000000C9462000C948A000C948A000C948A0070
:100010000C948A000C948A000C948A000C948A0038
:100020000C948A000C948A000C948A000C94380674
:100030000C948A000C948A000C948A000C948A0018
:100040000C9496050C948A000C9406060C94E0051A
:100050000C948A000C948A000C948A000C948A00F8
:100060000C948A000C948A000000000024002700F1
:100070002A0000000000250028002B0000000008D6
:10008000000201000003040700000000000000005F
:1000900000000000230026002900040404040404D6
:1000A0000404020202020202030303030303010227
:1000B00004081020408001020408102001020408F6
:1000C0001020F40611241FBECFEFD8E0DEBFCDBF55
:1000D00011E0A0E0B1E0ECE0FAE102C005900D9281
:1000E000AA3FB107D9F722E0AAEFB1E001C01D9203
:1000F000A03EB207E1F710E0C2E6D0E004C02197CD
:10010000FE010E94FE0CC136D107C9F70E946D079F
:100110000C94040D0C9400008F929F92AF92BF92AA
:10012000FF920F931F93CF93DF93F090CA022BE0BF
:100130002F1508F44CC02091CC0208E512E0021BF8
:10014000110927FD1395000F111F000F111F20919A
:10015000CB02C8E8D0E0C21BD10927FDD395CC0F54
:10016000DD1FCC0FDD1F4E010D2E000CAA08BB08B1
:100170009801012E000C440B550B281939094A0926
:100180005B09DC010E947D0A24EB30E040E050E096
:100190000E94530A820E931EA41EB51E8C169D0645
:1001A0002CF0E801801691060CF4E4012297CC0FA4
:1001B000DD1F2FB7F8948F2D90E0FC01EE0FFF1F8D
:1001C000E80FF91FEB55FD4FD283C1832FBFDF919D
:1001D000CF911F910F91FF90BF90AF909F908F9004
:1001E0000895CF92DF92EF92FF92CF93DF93B09179
:1001F000D402A0E08111AB2F8091D50290E0880F4E
:10020000991FAC0140575F4FC090DA02D090DB02DB
:10021000E090DC02F090DD0230E020E0FA01C591D0
:10022000D491E881B90190E080E0EB23EA130AC0A1
:100230002F5F3F4F6C157D058E059F0578F36FEF9F
:100240007FEFCB01DF91CF91FF90EF90DF90CF90C8
:10025000089590E0FC01E458FF4F2491FC01E25521
:10026000FF4F3491FC01E656FF4FE491EE23C9F0B5
:10027000222339F0233001F1A8F4213019F1223082
:1002800029F1F0E0EE0FFF1FEE58FF4FA591B4915A
:100290008FB7F894EC91611126C030953E233C93C2
:1002A0008FBF08952730A9F02830C9F0243049F7CE
:1002B000809180008F7D03C0809180008F77809334
:1002C0008000DFCF84B58F7784BDDBCF84B58F7D91
:1002D000FBCF8091B0008F778093B000D2CF809118
:1002E000B0008F7DF9CF3E2BDACFCF93DF9390E034
:1002F000FC01E255FF4F249186569F4FFC018491EB
:100300008823D1F090E0880F991FFC01E859FF4F36
:10031000A591B491FC01EE58FF4FC591D491623084
:1003200071F49FB7F8943C91822F809583238C932E
:10033000E8812E2B28839FBFDF91CF9108958FB73F
:10034000F894EC912E2B2C938FBFF6CF8E508064B7
:1003500080937C0080917A00806480937A00809101
:100360007A0086FDFCCF8091780090917900089505
:100370003FB7F8948091000290910102A09102028F
:10038000B091030226B5A89B05C02F3F19F0019636
:10039000A11DB11D3FBFBA2FA92F982F8827BC01DF
:1003A000CD01620F711D811D911D42E0660F771F07
:1003B000881F991F4A95D1F708958F929F92AF9207
:1003C000BF92CF92DF92EF92FF924B015C010E94AD
:1003D000B8016B017C010E94B8016C197D098E097E
:1003E0009F09683E734081059105A8F321E0821AB8
:1003F0009108A108B10888EEC80E83E0D81EE11C60
:10040000F11C81149104A104B10429F7FF90EF902D
:10041000DF90CF90BF90AF909F908F900895CF9234
:10042000DF92EF92FF920F931F93CF93DF93CDB79D
:10043000DEB7C054D1400FB6F894DEBF0FBECDBFBB
:100440002FB7F8948091040290910502A0910602C2
:10045000B09107022FBF4091D6025091D702609110
:10046000D8027091D9028C019D01041B150B260B3B
:10047000370BB901A801403D57406105710590F463
:100480008091DE02C05CDE4F0FB6F894DEBF0FBE77
:10049000CDBFDF91CF911F910F91FF90EF90DF9033
:1004A000CF9008958093D6029093D702A093D8025C
:1004B000B093D9021092D1021092D0021092CF02C2
:1004C0001092CE021092CD0262E08091D2020E9480
:1004D000750161E070E080E090E00E94DD0161E084
:1004E0008091D2020E94750160E08091D2020E9448
:1004F00029018091D3028551823020F58BE291E170
:100500000197F1F762E08091D2020E94750180911B
:10051000DF0290E08230910538F0880F991F880F34
:10052000991F05970197F1F7F89480E00E94F10078
:100530006F3F7F4F8F4F9F4F61F41092DE02789490
:1005400080E0A0CF64E170E080E090E00E94DD01F7
:10055000D9CF81E00E94F1006F3F7F4F8F4F9F4FB7
:1005600061F38E010F5F1F4F6E018FEBC81A8EEF84
:10057000D80A780180E00E94F100F701608371835E
:100580008283938381E00E94F100F7016483758385
:1005900086839783F8E0EF0EF11CEC14FD0451F70D
:1005A000789430E020E0F801C080D180E280F380D0
:1005B0004481558166817781FFEFCF16DF06EF0614
:1005C000FF0631F04F3F8FEF58076807780719F49F
:1005D0001092DE02B5CFF90183E0F595E7958A9593
:1005E000E1F7E353FD4F8081880FC416D506E60678
:1005F000F70610F180832F5F3F4F085F1F4F2832AF
:10060000310589F64091D1022091CD028091CE0230
:10061000280F3327331F8091CF02280F311D80917F
:10062000D002820F932F911D99274817190681F642
:1006300081E08093DE0226CF8160DCCFAF92BF9253
:10064000CF92DF92EF92FF920F931F93CF93DF939E
:100650006C017B018B01040F151FEB015E01AE18CD
:10066000BF08C017D10759F06991D601ED91FC91EF
:100670000190F081E02DC6010995892B79F7C5011C
:10068000DF91CF911F910F91FF90EF90DF90CF906E
:10069000BF90AF900895FC01538D448D252F30E01D
:1006A000842F90E0821B930B541710F0CF9608957F
:1006B00001970895FC01918D828D981761F0A28DAC
:1006C000AE0FBF2FB11D5D968C91928D9F5F9F7372
:1006D000928F90E008958FEF9FEF0895FC01918D28
:1006E000828D981731F0828DE80FF11D858D90E095
:1006F00008958FEF9FEF0895FC01918D228D892F32
:1007000090E0805C9F4F821B91098F739927089519
:1007100088E092E00E947C0321E0892B09F420E02C
:10072000822F089580E090E0892B29F00E948803B1
:1007300081110C9400000895FC01A48DA80FB92F1D
:10074000B11DA35ABF4F2C91848D90E001968F73F9
:100750009927848FA689B7892C93A089B1898C9118
:10076000837080648C93938D848D981306C0028867
:10077000F389E02D80818F7D80830895EF92FF9231
:100780000F931F93CF93DF93EC0181E0888F9B8DB4
:100790008C8D98131AC0E889F989808185FF15C06E
:1007A0009FB7F894EE89FF896083E889F989808191
:1007B0008370806480839FBF81E090E0DF91CF9160
:1007C0001F910F91FF90EF900895F62E0B8D10E082
:1007D0000F5F1F4F0F731127E02E8C8D8E110CC0F1
:1007E0000FB607FCFACFE889F989808185FFF5CF3C
:1007F000CE010E949C03F1CFEB8DEC0FFD2FF11D7C
:10080000E35AFF4FF0829FB7F8940B8FEA89FB8978
:1008100080818062CFCFCF93DF93EC01888D8823D6
:10082000B9F0AA89BB89E889F9898C9185FD03C053
:10083000808186FD0DC00FB607FCF7CF8C9185FF38
:10084000F2CF808185FFEDCFCE010E949C03E9CFDE
:10085000DF91CF910895FC0101900020E9F73197D5
:10086000AF01481B590BBC0188E092E00C941E03B9
:100870008F929F92AF92BF920F931F93CF93DF936C
:10088000CDB7DEB7A1970FB6F894DEBF0FBECDBFD0
:1008900019A2423008F44AE08E010F5D1F4F842EEA
:1008A000912CB12CA12CA50194010E94850AE62F60
:1008B000B901CA01EA30F4F4E05DD801EE938D018C
:1008C000232B242B252B79F790E080E0109719F04B
:1008D000CD010E942B04A1960FB6F894DEBF0FBE87
:1008E000CDBFDF91CF911F910F91BF90AF909F909F
:1008F0008F900895E95CE1CFCF93DF930E942B04A2
:10090000EC0182E191E00E942B048C0F9D1FDF918E
:10091000CF9108954F925F926F927F928F929F92A4
:10092000AF92BF92CF92DF92EF92FF920F931F93FD
:10093000CF936B017C01742EAC019B010E94ED0CE6
:10094000882399F085E191E0CF911F910F91FF905D
:10095000EF90DF90CF90BF90AF909F908F907F905F
:100960006F905F904F900C942B0446015701E894D0
:10097000B7F82FEF3FEF4FE75FE7C501B4010E94E3
:10098000ED0C81110DC02FEF3FEF4FE75FE7C50181
:10099000B4010E94230B18161CF489E191E0D4CF16
:1009A0002FEF3FEF4FE75FE4C701B6010E947B0CDA
:1009B00018161CF48DE191E0C7CF2FEF3FEF4FE702
:1009C0005FECC701B6010E94230B87FDF3CF20E047
:1009D00030E0A901C701B6010E94230B10E000E03E
:1009E00087FF0AC06DE288E092E00E94BE038C019E
:1009F000F7FAF094F7F8F094C0E060E070E080E07F
:100A00009FE37C1641F020E030E040E251E40E9498
:100A1000280BCF5FF6CFA70196010E94B70A2B01E2
:100A20003C010E949A0B4B015C014AE00E94380491
:100A30007C01E00EF11ECC23C1F1C501B4010E947E
:100A4000C90B9B01AC01C301B2010E94B60A4B0164
:100A50005C016EE288E092E00E94BE03E80EF91E9F
:100A6000C15018F120E030E040E251E4C501B4018A
:100A70000E94800C2B013C010E949A0B4B01B12C6F
:100A8000A12C4AE0C501B4010E943804E80EF91E09
:100A9000C501B4010E94C90B9B01AC01C301B201A5
:100AA0000E94B60A4B015C01DBCFC701CF911F91B9
:100AB0000F91FF90EF90DF90CF90BF90AF909F90FD
:100AC0008F907F906F905F904F900895CF92DF92BC
:100AD000EF92FF92CF93DF936C01990FEE08FF081E
:100AE000F7FE19C06DE288E092E00E94BE03EC01BF
:100AF00066277727CB016C197D098E099F094AE08B
:100B00000E9438048C0F9D1FDF91CF91FF90EF90D2
:100B1000DF90CF9008954AE0C701B601DF91CF91F1
:100B2000FF90EF90DF90CF900C9438041F920F92BB
:100B30000FB60F9211242F933F938F939F93AF93F0
:100B4000BF938091040290910502A0910602B0919A
:100B500007023091FF0123E0230F2D3758F501964E
:100B6000A11DB11D2093FF01809304029093050203
:100B7000A0930602B09307028091000290910102B7
:100B8000A0910202B09103020196A11DB11D8093B4
:100B9000000290930102A0930202B0930302BF915E
:100BA000AF919F918F913F912F910F900FBE0F901A
:100BB0001F90189526E8230F0296A11DB11DD2CFD4
:100BC0001F920F920FB60F9211242F933F934F93C2
:100BD0005F936F937F938F939F93AF93BF93EF93A5
:100BE000FF9388E092E00E949C03FF91EF91BF91F8
:100BF000AF919F918F917F916F915F914F913F91B5
:100C00002F910F900FBE0F901F9018951F920F926B
:100C10000FB60F9211242F938F939F93EF93FF930F
:100C2000E0911802F09119028081E0911E02F0918A
:100C30001F0282FD1BC09081809121028F5F8F7304
:100C400020912202821741F0E0912102F0E0E85F5A
:100C5000FD4F958F80932102FF91EF919F918F918E
:100C60002F910F900FBE0F901F9018958081F4CF99
:100C70001F920F920FB60F9211242F933F934F9311
:100C80005F936F937F938F939F93AF93BF93CF9314
:100C9000DF93EF93FF938091FA01C091C902D0E0F6
:100CA00087FF24C010928500109284008091FA0181
:100CB0008F5F8093FA018091FA01082E000C990B46
:100CC0008C179D0724F48091FA018C30C4F1809137
:100CD000840090918500049680349C4908F47AC081
:100CE0008091840090918500049676C08091FA01ED
:100CF000082E000C990B8C179D07C4F6E091FA01A1
:100D00008E2FEE0F990BFC01EE0FFF1FE80FF91F5E
:100D1000EB55FD4F808186FFC9CFE091FA018E2F00
:100D2000EE0F990BFC01EE0FFF1FE80FF91FEB55BB
:100D3000FD4F808160E08F730E942901B7CF209121
:100D4000840030918500E091FA018E2FEE0F990B0F
:100D5000FC01EE0FFF1FE80FF91FEB55FD4F8181DE
:100D60009281820F931F9093890080938800E09175
:100D7000FA018E2FEE0F990BFC01EE0FFF1FE80F0B
:100D8000F91FEB55FD4F808186FF11C0E091FA01FC
:100D90008E2FEE0F990BFC01EE0FFF1FE80FF91FCE
:100DA000EB55FD4F808161E08F730E942901FF9117
:100DB000EF91DF91CF91BF91AF919F918F917F91F3
:100DC0006F915F914F913F912F910F900FBE0F90B8
:100DD0001F90189580E49CE9909389008093880087
:100DE0008FEF8093FA01E3CF10920B0210920A0268
:100DF00088EE93E0A0E0B0E080930C0290930D02A7
:100E0000A0930E02B0930F0284E091E09093090248
:100E10008093080285EC90E0909315028093140271
:100E200084EC90E0909317028093160280EC90E09F
:100E3000909319028093180281EC90E090931B022A
:100E400080931A0282EC90E090931D0280931C0222
:100E500086EC90E090931F0280931E021092210274
:100E600010922202109223021092240282E08093B8
:100E7000D2028BE08093D302E0EBF0E0E491E093C8
:100E8000D402ECE9F0E0E491E093D50280E89EE33F
:100E9000A0E0B0E08093DA029093DB02A093DC0242
:100EA000B093DD028091C9028C3098F491E0980FE4
:100EB0009093C9028093CA0290E0FC01EE0FFF1FDD
:100EC000E80FF91FEB55FD4F88EB9BE09283818380
:100ED00008958FEF8093CA020895789484B5826054
:100EE00084BD84B5816084BD85B5826085BD85B5CE
:100EF000816085BD80916E00816080936E0010924C
:100F000081008091810082608093810080918100C6
:100F10008160809381008091800081608093800057
:100F20008091B10084608093B1008091B0008160B5
:100F30008093B00080917A00846080937A008091E1
:100F40007A00826080937A0080917A008160809339
:100F50007A0080917A00806880937A001092C100B4
:100F6000E0911802F091190282E08083E09114026E
:100F7000F09115021082E0911602F09117028FECA9
:100F8000808310922002E0911C02F0911D0286E005
:100F90008083E0911A02F0911B028081806180833E
:100FA000E0911A02F0911B02808188608083E091B9
:100FB0001A02F0911B02808180688083E0911A02FE
:100FC000F0911B0280818F7D808362E08091D2024C
:100FD0000E9475012FB7F894809104029091050248
:100FE000A0910602B09107022FBF805D9740A10932
:100FF000B1098093D6029093D702A093D802B09300
:10100000D90287E38093DF028091CA028C3008F016
:1010100051C061E086E00E9475018091CA02282FCC
:1010200030E0F901EE0FFF1FE20FF31FEB55FD4F0C
:101030009081907C966090831092CB021092CC02AB
:101040002CE0622F0E94F20C829FB001112430E04C
:1010500020E0AB01420F531FFA01EE0FFF1FE40F18
:10106000F51FEB55FD4F908196FD16C02F5F3F4F4A
:101070002C30310571F781110FC01092800082E091
:10108000809381001092850010928400B19A809123
:101090006F00826080936F00E091CA028E2F90E013
:1010A000FC01EE0FFF1FE80FF91FEB55FD4F80818C
:1010B0008064808361E087E00E94750161E088E0E0
:1010C0000E94750161E089E00E94750161E08AE09B
:1010D0000E94750161E08BE00E94750161E08DE086
:1010E0000E94750160E087E00E94290160E088E0CD
:1010F0000E94290160E089E00E94290160E08AE005
:101100000E94290160E08BE00E94290160E08DE0EF
:101110000E94290190E080E00E948C0081E291E031
:101120000E947C0430E0A32E30E0B32E8EE00E94BB
:10113000A6018C018FE00E94A601EC010E940F0223
:10114000882349F08091D3028B3028F08D3050F005
:1011500085518230C0F1412C512C20EC622E2FE7BA
:10116000722E1EC06091CE0270E090E080E00E947E
:10117000CB0B2DEC3CEC4CEC5DE30E94800C6B0146
:101180007C016091CD0270E090E080E00E94CB0B8A
:101190009B01AC01C701B6010E94B70A2B013C01BB
:1011A0000E940F02882341F08091D3028C3009F411
:1011B0000DC1D8F48B3091F1C12CD12C80ECE82EEC
:1011C0008FE7F82E55C06091CD027091CE02762740
:1011D0006727762790E080E00E94C90B2DEC3CEC5D
:1011E0004CEC5DE30E94800CD9CF8551823020F712
:1011F0009090CF02692D70E0762F662766277F7763
:101200008091D002682B90E080E00E94C90B2DEC09
:101210003CEC4CEC5DE30E94800CF4C06091CF028A
:1012200070E090E080E00E94C90B6B017C0190901F
:10123000D00297FE0AC0AC019B0160E070E080E83C
:101240009FEB0E94B60A6B017C01692D6F7070E004
:1012500090E080E00E94CB0B2DEC3CEC4CEC5DE38D
:101260000E94800CA70196010E94B70A6B017C01C5
:1012700089E391E00E947C048EE491E00E942B04BB
:10128000C8010E94660585E591E00E942B04CE010D
:101290000E946605A7019601C701B6010E94ED0CE8
:1012A000811122C0A3019201C301B2010E94ED0C81
:1012B00081111AC080E691E00E942B0442E0C70130
:1012C000B6010E948A048AE691E00E942B048EE611
:1012D00091E00E942B0442E0C301B2010E948A0403
:1012E0008CE791E00E947C04043F11400CF093C015
:1012F00061E087E00E94290161E088E00E94290105
:101300008EE791E00E947C0420E030E040EF51E461
:10131000C701B6010E947B0C18160CF085C061E075
:101320008BE00E94290161E089E00E9429018AE5A1
:1013300090E00E948C002FB7F89480910402909165
:101340000502A0910602B09107022FBF8093FB0116
:101350009093FC01A093FD01B093FE0184E991E01C
:101360000E947C0420E030E046E952E4C301B2016F
:101370000E947B0C181644F48DE290E00E948C00D1
:1013800087EB91E00E947C04C83CD1050CF082C040
:1013900061E08DE00E94290161E08AE00E9429015C
:1013A00084EE91E00E947C0460ED77E080E090E0C4
:1013B0000E94DD01A114B10409F4B8CE0E94880393
:1013C000882309F4B3CE0E940000B0CE9090CF02E3
:1013D000692D70E090E080E00E94C90B6B017C01F8
:1013E0006091D0026F7070E090E080E00E94CB0BC3
:1013F0002DEC3CEC4CEC5DE30E94800CA7019601C7
:101400000E94B70A6B017C0197FE32CFF7FAF09485
:10141000F7F8F0942DCF60E087E00E94290160E0AA
:1014200088E00E94290170CF20E030E040EE51E4D6
:10143000C701B6010E94230B87FF0FC060E08BE05D
:101440000E94290160E089E00E94290190E080E08B
:101450000E948C0087EA91E083CF2FB7F8948091A7
:10146000040290910502A0910602B09107022FBFDD
:101470004091FB015091FC016091FD017091FE01D2
:10148000841B950BA60BB70B81319742A105B105C3
:10149000A8F668CF60E08DE00E94290160E08AE054
:1014A0000E94290181CF052E97FB1EF400940E9413
:1014B0006A0A57FD07D00E94850A07FC03D04EF444
:1014C0000C946A0A50954095309521953F4F4F4FA7
:1014D0005F4F089590958095709561957F4F8F4FE0
:1014E0009F4F08950E94A70AA59F900DB49F900D4D
:1014F000A49F800D911D11240895B7FF0C94720ACA
:101500000E94720A821B930B0895A1E21A2EAA1B55
:10151000BB1BFD010DC0AA1FBB1FEE1FFF1FA217A3
:10152000B307E407F50720F0A21BB30BE40BF50BA0
:10153000661F771F881F991F1A9469F76095709529
:10154000809590959B01AC01BD01CF010895A29FAC
:10155000B001B39FC001A39F700D811D1124911D87
:10156000B29F700D811D1124911D08955058BB2705
:10157000AA270E94CE0A0C94410C0E94330C38F02A
:101580000E943A0C20F039F49F3F19F426F40C9491
:10159000300C0EF4E095E7FB0C942A0CE92F0E9426
:1015A000520C58F3BA17620773078407950720F0A7
:1015B00079F4A6F50C94740C0EF4E0950B2EBA2F6A
:1015C000A02D0B01B90190010C01CA01A001112449
:1015D000FF27591B99F0593F50F4503E68F11A16F5
:1015E000F040A22F232F342F4427585FF3CF469586
:1015F00037952795A795F0405395C9F77EF41F16A8
:10160000BA0B620B730B840BBAF09150A1F0FF0F71
:10161000BB1F661F771F881FC2F70EC0BA0F621F5D
:10162000731F841F48F4879577956795B795F7954D
:101630009E3F08F0B0CF9395880F08F09927EE0FE2
:101640009795879508950E94060C08F481E0089507
:101650000E943C0B0C94410C0E943A0C58F00E94E2
:10166000330C40F029F45F3F29F00C942A0C5111FF
:101670000C94750C0C94300C0E94520C68F3992356
:10168000B1F3552391F3951B550BBB27AA2762177E
:101690007307840738F09F5F5F4F220F331F441F8B
:1016A000AA1FA9F335D00E2E3AF0E0E832D09150BF
:1016B0005040E695001CCAF72BD0FE2F29D0660FAC
:1016C000771F881FBB1F261737074807AB07B0E8EF
:1016D00009F0BB0B802DBF01FF2793585F4F3AF0F5
:1016E0009E3F510578F00C942A0C0C94750C5F3FCA
:1016F000E4F3983ED4F3869577956795B795F7957B
:101700009F5FC9F7880F911D9695879597F9089562
:10171000E1E0660F771F881FBB1F621773078407FE
:10172000BA0720F0621B730B840BBA0BEE1F88F70D
:10173000E09508950E945A0C88F09F5798F0B92FB1
:101740009927B751B0F0E1F0660F771F881F991FF6
:101750001AF0BA95C9F714C0B13091F00E94740C18
:10176000B1E008950C94740C672F782F8827B85F28
:1017700039F0B93FCCF3869577956795B395D9F74E
:101780003EF490958095709561957F4F8F4F9F4F58
:101790000895E89409C097FB3EF490958095709564
:1017A00061957F4F8F4F9F4F9923A9F0F92F96E9AD
:1017B000BB279395F695879577956795B795F11122
:1017C000F8CFFAF4BB0F11F460FF1BC06F5F7F4FBF
:1017D0008F4F9F4F16C0882311F096E911C07723D1
:1017E00021F09EE8872F762F05C0662371F096E8DA
:1017F000862F70E060E02AF09A95660F771F881FA9
:10180000DAF7880F9695879597F90895990F00084C
:10181000550FAA0BE0E8FEEF16161706E807F907C2
:10182000C0F012161306E407F50798F0621B730B5D
:10183000840B950B39F40A2661F0232B242B252BDE
:1018400021F408950A2609F4A140A6958FEF811D81
:10185000811D089597F99F6780E870E060E0089522
:101860009FEF80EC089500240A94161617061806B8
:101870000906089500240A94121613061406050694
:101880000895092E0394000C11F4882352F0BB0F25
:1018900040F4BF2B11F460FF04C06F5F7F4F8F4F88
:1018A0009F4F089557FD9058440F551F59F05F3FC3
:1018B00071F04795880F97FB991F61F09F3F79F072
:1018C00087950895121613061406551FF2CF4695F4
:1018D000F1DF08C0161617061806991FF1CF869576
:1018E0007105610508940895E894BB27662777275A
:1018F000CB0197F908950E94060C08F48FEF089524
:101900000E94930C0C94410C0E94330C38F00E94FE
:101910003A0C20F0952311F00C942A0C0C94300C06
:1019200011240C94750C0E94520C70F3959FC1F316
:10193000950F50E0551F629FF001729FBB27F00D7D
:10194000B11D639FAA27F00DB11DAA1F649F6627D2
:10195000B00DA11D661F829F2227B00DA11D621F21
:10196000739FB00DA11D621F839FA00D611D221FDB
:10197000749F3327A00D611D231F849F600D211DBF
:10198000822F762F6A2F11249F5750409AF0F1F042
:1019900088234AF0EE0FFF1FBB1F661F771F881FAB
:1019A00091505040A9F79E3F510580F00C942A0CAD
:1019B0000C94750C5F3FE4F3983ED4F386957795CD
:1019C0006795B795F795E7959F5FC1F7FE2B880F51
:1019D000911D9695879597F908950E94060C880B9E
:1019E000990B0895991B79E004C0991F961708F088
:1019F000961B881F7A95C9F780950895EE0FFF1FF3
:0C1A00000590F491E02D0994F894FFCFBC
:101A0C0000000000BE031E034B030B047C035A03AF
:101A1C006E030D0A006E616E00696E66006F76666D
:101A2C0000536D617274204661726D20537973742A
:101A3C00656D205265616479000A3D3D3D2053651A
:101A4C006E736F722044617461203D3D3D00536F95
:101A5C00696C3A2000207C204C696768743A20003D
:101A6C00207C2054656D703A2000C2B04300207C6D
:101A7C002048756D69646974793A200025004143EA
:101A8C0054494F4E3A2057617465722070756D70D1
:101A9C00204F4E0046414E3A204F4E20284F76653F
:101AAC007268656174290046414E3A20464F524394
:101ABC004544204F464600434C494D4154453A203D
:101ACC0056656E74205061727469616C6C79204F2C
:101ADC0070656E2028486967682048756D6964696F
:101AEC0074792900414354494F4E3A2047726F771D
:0A1AFC00206C69676874204F4E00EB
:00000001FF
